{
  "contractName": "Balances",
  "abi": [
    {
      "constant": true,
      "inputs": [
        {
          "internalType": "address",
          "name": "account",
          "type": "address"
        },
        {
          "internalType": "address[]",
          "name": "tokens",
          "type": "address[]"
        }
      ],
      "name": "getBalances",
      "outputs": [
        {
          "components": [
            {
              "internalType": "address",
              "name": "token",
              "type": "address"
            },
            {
              "internalType": "uint256",
              "name": "balance",
              "type": "uint256"
            }
          ],
          "internalType": "struct Balances.Balance[]",
          "name": "",
          "type": "tuple[]"
        }
      ],
      "payable": false,
      "stateMutability": "view",
      "type": "function"
    }
  ],
  "bytecode": "0x608060405234801561001057600080fd5b506105e9806100206000396000f3fe608060405234801561001057600080fd5b506004361061002b5760003560e01c80636a385ae914610030575b600080fd5b61004a60048036036100459190810190610322565b610060565b604051610057919061048c565b60405180910390f35b60606000825190506060816040519080825280602002602001820160405280156100a457816020015b610091610245565b8152602001906001900390816100895790505b50905060008090505b828110156102395760008582815181106100c357fe5b60200260200101519050600073ffffffffffffffffffffffffffffffffffffffff168173ffffffffffffffffffffffffffffffffffffffff1614156101605760405180604001604052808273ffffffffffffffffffffffffffffffffffffffff1681526020018873ffffffffffffffffffffffffffffffffffffffff163181525083838151811061015057fe5b602002602001018190525061022b565b60405180604001604052808273ffffffffffffffffffffffffffffffffffffffff1681526020018273ffffffffffffffffffffffffffffffffffffffff166370a082318a6040518263ffffffff1660e01b81526004016101c09190610471565b60206040518083038186803b1580156101d857600080fd5b505afa1580156101ec573d6000803e3d6000fd5b505050506040513d601f19601f820116820180604052506102109190810190610376565b81525083838151811061021f57fe5b60200260200101819052505b5080806001019150506100ad565b50809250505092915050565b6040518060400160405280600073ffffffffffffffffffffffffffffffffffffffff168152602001600081525090565b60008135905061028481610578565b92915050565b600082601f83011261029b57600080fd5b81356102ae6102a9826104db565b6104ae565b915081818352602084019350602081019050838560208402820111156102d357600080fd5b60005b8381101561030357816102e98882610275565b8452602084019350602083019250506001810190506102d6565b5050505092915050565b60008151905061031c8161058f565b92915050565b6000806040838503121561033557600080fd5b600061034385828601610275565b925050602083013567ffffffffffffffff81111561036057600080fd5b61036c8582860161028a565b9150509250929050565b60006020828403121561038857600080fd5b60006103968482850161030d565b91505092915050565b60006103ab8383610433565b60408301905092915050565b6103c08161053c565b82525050565b6103cf8161053c565b82525050565b60006103e082610513565b6103ea818561052b565b93506103f583610503565b8060005b8381101561042657815161040d888261039f565b97506104188361051e565b9250506001810190506103f9565b5085935050505092915050565b60408201600082015161044960008501826103b7565b50602082015161045c6020850182610462565b50505050565b61046b8161056e565b82525050565b600060208201905061048660008301846103c6565b92915050565b600060208201905081810360008301526104a681846103d5565b905092915050565b6000604051905081810181811067ffffffffffffffff821117156104d157600080fd5b8060405250919050565b600067ffffffffffffffff8211156104f257600080fd5b602082029050602081019050919050565b6000819050602082019050919050565b600081519050919050565b6000602082019050919050565b600082825260208201905092915050565b60006105478261054e565b9050919050565b600073ffffffffffffffffffffffffffffffffffffffff82169050919050565b6000819050919050565b6105818161053c565b811461058c57600080fd5b50565b6105988161056e565b81146105a357600080fd5b5056fea365627a7a7231582040aed6fe9e880f21280cc26d85ae3bc9bfd27f8b8080facd9d3aef4a719a1f8f6c6578706572696d656e74616cf564736f6c63430005100040",
  "source": "// SPDX-License-Identifier: MIT\r\npragma solidity >=0.4.22 <0.9.0;\r\npragma experimental ABIEncoderV2;\r\n\r\ninterface IERC20 {\r\n    function balanceOf(address) external view returns (uint256);\r\n}\r\n\r\ncontract Balances {\r\n    struct Balance {\r\n        address token;\r\n        uint256 balance;\r\n    }\r\n\r\n    function getBalances(address account, address[] memory tokens)\r\n        public\r\n        view\r\n        returns (Balance[] memory)\r\n    {\r\n        uint256 len = tokens.length;\r\n\r\n        Balance[] memory returnDatas = new Balance[](len);\r\n\r\n        for (uint256 i = 0; i < len; i++) {\r\n            address token = tokens[i];\r\n            if (token == address(0)) {\r\n                returnDatas[i] = Balance({\r\n                    token: token,\r\n                    balance: account.balance\r\n                });\r\n            } else {\r\n                returnDatas[i] = Balance({\r\n                    token: token,\r\n                    balance: IERC20(token).balanceOf(account)\r\n                });\r\n            }\r\n        }\r\n\r\n        return returnDatas;\r\n    }\r\n}\r\n",
  "sourcePath": "D:\\Coding\\creavor\\Code-Challenge\\src\\problem5\\MetaCoin\\contracts\\Balances.sol",
  "compiler": {
    "name": "solc",
    "version": "0.5.16+commit.9c3226ce.Emscripten.clang"
  },
  "schemaVersion": "3.4.3",
  "updatedAt": "2021-10-31T02:38:11.784Z",
  "networkType": "ethereum",
  "devdoc": {
    "methods": {}
  },
  "userdoc": {
    "methods": {}
  }
}